{
  "_format": "hh-sol-artifact-1",
  "contractName": "OpenIntentBook",
  "sourceName": "contracts/OpenIntentBook.sol",
  "abi": [
    {
      "inputs": [],
      "stateMutability": "nonpayable",
      "type": "constructor"
    },
    {
      "inputs": [],
      "name": "ECDSAInvalidSignature",
      "type": "error"
    },
    {
      "inputs": [
        {
          "internalType": "uint256",
          "name": "length",
          "type": "uint256"
        }
      ],
      "name": "ECDSAInvalidSignatureLength",
      "type": "error"
    },
    {
      "inputs": [
        {
          "internalType": "bytes32",
          "name": "s",
          "type": "bytes32"
        }
      ],
      "name": "ECDSAInvalidSignatureS",
      "type": "error"
    },
    {
      "inputs": [],
      "name": "IntentAlreadyFinalized",
      "type": "error"
    },
    {
      "inputs": [],
      "name": "IntentExpired",
      "type": "error"
    },
    {
      "inputs": [],
      "name": "IntentNotFinalizable",
      "type": "error"
    },
    {
      "inputs": [],
      "name": "IntentNotPosted",
      "type": "error"
    },
    {
      "inputs": [],
      "name": "InvalidBid",
      "type": "error"
    },
    {
      "inputs": [],
      "name": "InvalidShortString",
      "type": "error"
    },
    {
      "inputs": [],
      "name": "InvalidSignature",
      "type": "error"
    },
    {
      "inputs": [],
      "name": "NonceAlreadyUsed",
      "type": "error"
    },
    {
      "inputs": [],
      "name": "NotMaker",
      "type": "error"
    },
    {
      "inputs": [
        {
          "internalType": "string",
          "name": "str",
          "type": "string"
        }
      ],
      "name": "StringTooLong",
      "type": "error"
    },
    {
      "inputs": [],
      "name": "ZeroAddress",
      "type": "error"
    },
    {
      "anonymous": false,
      "inputs": [
        {
          "indexed": true,
          "internalType": "bytes32",
          "name": "intentHash",
          "type": "bytes32"
        },
        {
          "indexed": true,
          "internalType": "uint256",
          "name": "bidId",
          "type": "uint256"
        },
        {
          "indexed": false,
          "internalType": "uint256",
          "name": "amountOut",
          "type": "uint256"
        }
      ],
      "name": "BestBidUpdated",
      "type": "event"
    },
    {
      "anonymous": false,
      "inputs": [
        {
          "indexed": true,
          "internalType": "bytes32",
          "name": "intentHash",
          "type": "bytes32"
        },
        {
          "indexed": true,
          "internalType": "uint256",
          "name": "bidId",
          "type": "uint256"
        },
        {
          "indexed": true,
          "internalType": "address",
          "name": "solver",
          "type": "address"
        },
        {
          "indexed": false,
          "internalType": "uint256",
          "name": "amountOut",
          "type": "uint256"
        },
        {
          "indexed": false,
          "internalType": "uint256",
          "name": "bond",
          "type": "uint256"
        }
      ],
      "name": "BidSubmitted",
      "type": "event"
    },
    {
      "anonymous": false,
      "inputs": [],
      "name": "EIP712DomainChanged",
      "type": "event"
    },
    {
      "anonymous": false,
      "inputs": [
        {
          "indexed": true,
          "internalType": "bytes32",
          "name": "intentHash",
          "type": "bytes32"
        }
      ],
      "name": "IntentCancelled",
      "type": "event"
    },
    {
      "anonymous": false,
      "inputs": [
        {
          "indexed": true,
          "internalType": "bytes32",
          "name": "intentHash",
          "type": "bytes32"
        },
        {
          "indexed": true,
          "internalType": "uint256",
          "name": "winningBidId",
          "type": "uint256"
        },
        {
          "indexed": true,
          "internalType": "address",
          "name": "solver",
          "type": "address"
        },
        {
          "indexed": false,
          "internalType": "uint256",
          "name": "amountOut",
          "type": "uint256"
        }
      ],
      "name": "IntentFinalized",
      "type": "event"
    },
    {
      "anonymous": false,
      "inputs": [
        {
          "indexed": true,
          "internalType": "bytes32",
          "name": "intentHash",
          "type": "bytes32"
        },
        {
          "indexed": true,
          "internalType": "address",
          "name": "maker",
          "type": "address"
        },
        {
          "indexed": false,
          "internalType": "address",
          "name": "tokenIn",
          "type": "address"
        },
        {
          "indexed": false,
          "internalType": "address",
          "name": "tokenOut",
          "type": "address"
        },
        {
          "indexed": false,
          "internalType": "uint256",
          "name": "amountIn",
          "type": "uint256"
        },
        {
          "indexed": false,
          "internalType": "uint256",
          "name": "minAmountOut",
          "type": "uint256"
        },
        {
          "indexed": false,
          "internalType": "uint64",
          "name": "deadline",
          "type": "uint64"
        },
        {
          "indexed": false,
          "internalType": "uint256",
          "name": "nonce",
          "type": "uint256"
        }
      ],
      "name": "IntentPosted",
      "type": "event"
    },
    {
      "inputs": [],
      "name": "INTENT_TYPEHASH",
      "outputs": [
        {
          "internalType": "bytes32",
          "name": "",
          "type": "bytes32"
        }
      ],
      "stateMutability": "view",
      "type": "function"
    },
    {
      "inputs": [
        {
          "internalType": "bytes32",
          "name": "",
          "type": "bytes32"
        },
        {
          "internalType": "uint256",
          "name": "",
          "type": "uint256"
        }
      ],
      "name": "bids",
      "outputs": [
        {
          "internalType": "address",
          "name": "solver",
          "type": "address"
        },
        {
          "internalType": "uint256",
          "name": "amountOut",
          "type": "uint256"
        },
        {
          "internalType": "uint256",
          "name": "bond",
          "type": "uint256"
        },
        {
          "internalType": "bool",
          "name": "active",
          "type": "bool"
        }
      ],
      "stateMutability": "view",
      "type": "function"
    },
    {
      "inputs": [
        {
          "components": [
            {
              "internalType": "address",
              "name": "maker",
              "type": "address"
            },
            {
              "internalType": "address",
              "name": "tokenIn",
              "type": "address"
            },
            {
              "internalType": "address",
              "name": "tokenOut",
              "type": "address"
            },
            {
              "internalType": "uint256",
              "name": "amountIn",
              "type": "uint256"
            },
            {
              "internalType": "uint256",
              "name": "minAmountOut",
              "type": "uint256"
            },
            {
              "internalType": "uint64",
              "name": "deadline",
              "type": "uint64"
            },
            {
              "internalType": "uint256",
              "name": "nonce",
              "type": "uint256"
            }
          ],
          "internalType": "struct OpenIntentBook.Intent",
          "name": "i",
          "type": "tuple"
        }
      ],
      "name": "cancel",
      "outputs": [],
      "stateMutability": "nonpayable",
      "type": "function"
    },
    {
      "inputs": [],
      "name": "eip712Domain",
      "outputs": [
        {
          "internalType": "bytes1",
          "name": "fields",
          "type": "bytes1"
        },
        {
          "internalType": "string",
          "name": "name",
          "type": "string"
        },
        {
          "internalType": "string",
          "name": "version",
          "type": "string"
        },
        {
          "internalType": "uint256",
          "name": "chainId",
          "type": "uint256"
        },
        {
          "internalType": "address",
          "name": "verifyingContract",
          "type": "address"
        },
        {
          "internalType": "bytes32",
          "name": "salt",
          "type": "bytes32"
        },
        {
          "internalType": "uint256[]",
          "name": "extensions",
          "type": "uint256[]"
        }
      ],
      "stateMutability": "view",
      "type": "function"
    },
    {
      "inputs": [
        {
          "components": [
            {
              "internalType": "address",
              "name": "maker",
              "type": "address"
            },
            {
              "internalType": "address",
              "name": "tokenIn",
              "type": "address"
            },
            {
              "internalType": "address",
              "name": "tokenOut",
              "type": "address"
            },
            {
              "internalType": "uint256",
              "name": "amountIn",
              "type": "uint256"
            },
            {
              "internalType": "uint256",
              "name": "minAmountOut",
              "type": "uint256"
            },
            {
              "internalType": "uint64",
              "name": "deadline",
              "type": "uint64"
            },
            {
              "internalType": "uint256",
              "name": "nonce",
              "type": "uint256"
            }
          ],
          "internalType": "struct OpenIntentBook.Intent",
          "name": "i",
          "type": "tuple"
        }
      ],
      "name": "escrow",
      "outputs": [],
      "stateMutability": "nonpayable",
      "type": "function"
    },
    {
      "inputs": [
        {
          "components": [
            {
              "internalType": "address",
              "name": "maker",
              "type": "address"
            },
            {
              "internalType": "address",
              "name": "tokenIn",
              "type": "address"
            },
            {
              "internalType": "address",
              "name": "tokenOut",
              "type": "address"
            },
            {
              "internalType": "uint256",
              "name": "amountIn",
              "type": "uint256"
            },
            {
              "internalType": "uint256",
              "name": "minAmountOut",
              "type": "uint256"
            },
            {
              "internalType": "uint64",
              "name": "deadline",
              "type": "uint64"
            },
            {
              "internalType": "uint256",
              "name": "nonce",
              "type": "uint256"
            }
          ],
          "internalType": "struct OpenIntentBook.Intent",
          "name": "i",
          "type": "tuple"
        }
      ],
      "name": "finalize",
      "outputs": [
        {
          "internalType": "bytes32",
          "name": "intentHash",
          "type": "bytes32"
        },
        {
          "internalType": "uint256",
          "name": "winningBidId",
          "type": "uint256"
        }
      ],
      "stateMutability": "nonpayable",
      "type": "function"
    },
    {
      "inputs": [
        {
          "components": [
            {
              "internalType": "address",
              "name": "maker",
              "type": "address"
            },
            {
              "internalType": "address",
              "name": "tokenIn",
              "type": "address"
            },
            {
              "internalType": "address",
              "name": "tokenOut",
              "type": "address"
            },
            {
              "internalType": "uint256",
              "name": "amountIn",
              "type": "uint256"
            },
            {
              "internalType": "uint256",
              "name": "minAmountOut",
              "type": "uint256"
            },
            {
              "internalType": "uint64",
              "name": "deadline",
              "type": "uint64"
            },
            {
              "internalType": "uint256",
              "name": "nonce",
              "type": "uint256"
            }
          ],
          "internalType": "struct OpenIntentBook.Intent",
          "name": "i",
          "type": "tuple"
        }
      ],
      "name": "hashIntent",
      "outputs": [
        {
          "internalType": "bytes32",
          "name": "",
          "type": "bytes32"
        }
      ],
      "stateMutability": "view",
      "type": "function"
    },
    {
      "inputs": [
        {
          "internalType": "bytes32",
          "name": "",
          "type": "bytes32"
        }
      ],
      "name": "intentState",
      "outputs": [
        {
          "internalType": "enum OpenIntentBook.Status",
          "name": "status",
          "type": "uint8"
        },
        {
          "internalType": "uint256",
          "name": "bestBidId",
          "type": "uint256"
        },
        {
          "internalType": "uint256",
          "name": "bidCount",
          "type": "uint256"
        },
        {
          "internalType": "bool",
          "name": "escrowed",
          "type": "bool"
        }
      ],
      "stateMutability": "view",
      "type": "function"
    },
    {
      "inputs": [
        {
          "internalType": "address",
          "name": "",
          "type": "address"
        },
        {
          "internalType": "uint256",
          "name": "",
          "type": "uint256"
        }
      ],
      "name": "nonceUsed",
      "outputs": [
        {
          "internalType": "bool",
          "name": "",
          "type": "bool"
        }
      ],
      "stateMutability": "view",
      "type": "function"
    },
    {
      "inputs": [
        {
          "components": [
            {
              "internalType": "address",
              "name": "maker",
              "type": "address"
            },
            {
              "internalType": "address",
              "name": "tokenIn",
              "type": "address"
            },
            {
              "internalType": "address",
              "name": "tokenOut",
              "type": "address"
            },
            {
              "internalType": "uint256",
              "name": "amountIn",
              "type": "uint256"
            },
            {
              "internalType": "uint256",
              "name": "minAmountOut",
              "type": "uint256"
            },
            {
              "internalType": "uint64",
              "name": "deadline",
              "type": "uint64"
            },
            {
              "internalType": "uint256",
              "name": "nonce",
              "type": "uint256"
            }
          ],
          "internalType": "struct OpenIntentBook.Intent",
          "name": "i",
          "type": "tuple"
        },
        {
          "internalType": "bytes",
          "name": "signature",
          "type": "bytes"
        }
      ],
      "name": "postIntent",
      "outputs": [
        {
          "internalType": "bytes32",
          "name": "intentHash",
          "type": "bytes32"
        }
      ],
      "stateMutability": "nonpayable",
      "type": "function"
    },
    {
      "inputs": [
        {
          "components": [
            {
              "internalType": "address",
              "name": "maker",
              "type": "address"
            },
            {
              "internalType": "address",
              "name": "tokenIn",
              "type": "address"
            },
            {
              "internalType": "address",
              "name": "tokenOut",
              "type": "address"
            },
            {
              "internalType": "uint256",
              "name": "amountIn",
              "type": "uint256"
            },
            {
              "internalType": "uint256",
              "name": "minAmountOut",
              "type": "uint256"
            },
            {
              "internalType": "uint64",
              "name": "deadline",
              "type": "uint64"
            },
            {
              "internalType": "uint256",
              "name": "nonce",
              "type": "uint256"
            }
          ],
          "internalType": "struct OpenIntentBook.Intent",
          "name": "i",
          "type": "tuple"
        },
        {
          "internalType": "uint256",
          "name": "amountOut",
          "type": "uint256"
        }
      ],
      "name": "submitBid",
      "outputs": [
        {
          "internalType": "bytes32",
          "name": "intentHash",
          "type": "bytes32"
        },
        {
          "internalType": "uint256",
          "name": "bidId",
          "type": "uint256"
        }
      ],
      "stateMutability": "payable",
      "type": "function"
    },
    {
      "inputs": [
        {
          "components": [
            {
              "internalType": "address",
              "name": "maker",
              "type": "address"
            },
            {
              "internalType": "address",
              "name": "tokenIn",
              "type": "address"
            },
            {
              "internalType": "address",
              "name": "tokenOut",
              "type": "address"
            },
            {
              "internalType": "uint256",
              "name": "amountIn",
              "type": "uint256"
            },
            {
              "internalType": "uint256",
              "name": "minAmountOut",
              "type": "uint256"
            },
            {
              "internalType": "uint64",
              "name": "deadline",
              "type": "uint64"
            },
            {
              "internalType": "uint256",
              "name": "nonce",
              "type": "uint256"
            }
          ],
          "internalType": "struct OpenIntentBook.Intent",
          "name": "i",
          "type": "tuple"
        },
        {
          "internalType": "bytes",
          "name": "signature",
          "type": "bytes"
        }
      ],
      "name": "verify",
      "outputs": [
        {
          "internalType": "address",
          "name": "signer",
          "type": "address"
        }
      ],
      "stateMutability": "view",
      "type": "function"
    }
  ],
  "bytecode": "0x610160604052348015610010575f5ffd5b50604080518082018252601381527f4f70656e496e74656e742050726f746f636f6c0000000000000000000000000060208083019190915282518084019093526003835262302e3160e81b908301529061006a825f610113565b61012052610079816001610113565b61014052815160208084019190912060e052815190820120610100524660a05261010560e05161010051604080517f8b73c3c69bb8fe3d512ecc4cf759cc79239f7b179b0ffacaa9a75d522b39400f60208201529081019290925260608201524660808201523060a08201525f9060c00160405160208183030381529060405280519060200120905090565b60805250503060c052610335565b5f60208351101561012e5761012783610145565b905061013f565b816101398482610223565b5060ff90505b92915050565b5f5f829050601f81511115610178578260405163305a27a960e01b815260040161016f91906102dd565b60405180910390fd5b805161018382610312565b179392505050565b634e487b7160e01b5f52604160045260245ffd5b600181811c908216806101b357607f821691505b6020821081036101d157634e487b7160e01b5f52602260045260245ffd5b50919050565b601f82111561021e57805f5260205f20601f840160051c810160208510156101fc5750805b601f840160051c820191505b8181101561021b575f8155600101610208565b50505b505050565b81516001600160401b0381111561023c5761023c61018b565b6102508161024a845461019f565b846101d7565b6020601f821160018114610282575f831561026b5750848201515b5f19600385901b1c1916600184901b17845561021b565b5f84815260208120601f198516915b828110156102b15787850151825560209485019460019092019101610291565b50848210156102ce57868401515f19600387901b60f8161c191681555b50505050600190811b01905550565b602081525f82518060208401528060208501604085015e5f604082850101526040601f19601f83011684010191505092915050565b805160208083015191908110156101d1575f1960209190910360031b1b16919050565b60805160a05160c05160e0516101005161012051610140516117a86103865f395f61100701525f610fd601525f61112e01525f61110601525f61106101525f61108b01525f6110b501526117a85ff3fe6080604052600436106100a5575f3560e01c80638740c3b5116100625780638740c3b5146101e2578063a46a9a7514610201578063b082a27414610229578063c6bff40c1461025c578063dac8ca751461027b578063f7e65b1c146102b2575f5ffd5b80630c9d34e8146100a95780631647795e146100db57806343ec523814610124578063556626fb1461014557806384b0196e1461019c5780638531e33f146101c3575b5f5ffd5b3480156100b4575f5ffd5b506100c86100c336600461146e565b610335565b6040519081526020015b60405180910390f35b3480156100e6575f5ffd5b506101146100f53660046114a3565b600460209081525f928352604080842090915290825290205460ff1681565b60405190151581526020016100d2565b34801561012f575f5ffd5b5061014361013e36600461146e565b61041d565b005b348015610150575f5ffd5b5061018c61015f3660046114cb565b600260208190525f9182526040909120805460018201549282015460039092015460ff9182169392911684565b6040516100d294939291906114f6565b3480156101a7575f5ffd5b506101b0610554565b6040516100d29796959493929190611562565b3480156101ce575f5ffd5b506101436101dd36600461146e565b610596565b3480156101ed575f5ffd5b506100c86101fc3660046115f8565b61076e565b61021461020f366004611678565b6109d3565b604080519283526020830191909152016100d2565b348015610234575f5ffd5b506100c87f6e495a42f20b3feb52b8a847ad772ef0670490c7c4c85e1cb4c57b736802faa281565b348015610267575f5ffd5b5061021461027636600461146e565b610bd2565b348015610286575f5ffd5b5061029a6102953660046115f8565b610f46565b6040516001600160a01b0390911681526020016100d2565b3480156102bd575f5ffd5b506103096102cc3660046116a2565b600360208181525f9384526040808520909152918352912080546001820154600283015492909301546001600160a01b0390911692919060ff1684565b604080516001600160a01b039095168552602085019390935291830152151560608201526080016100d2565b5f807f6e495a42f20b3feb52b8a847ad772ef0670490c7c4c85e1cb4c57b736802faa261036560208501856116c2565b61037560408601602087016116c2565b61038560608701604088016116c2565b6060870135608088013561039f60c08a0160a08b016116db565b6040805160208101989098526001600160a01b0396871690880152938516606087015293909116608085015260a084015260c08381019290925267ffffffffffffffff1660e08301528401356101008201526101200160405160208183030381529060405280519060200120905061041681610f9d565b9392505050565b61042a60208201826116c2565b6001600160a01b0316336001600160a01b03161461045b5760405163b331e42160e01b815260040160405180910390fd5b5f61046582610335565b5f8181526002602052604090209091506001815460ff16600381111561048d5761048d6114e2565b146104ab57604051630896574360e41b815260040160405180910390fd5b600381015460ff16156104d15760405163163f7f0160e11b815260040160405180910390fd5b805460ff19166003178155600160045f6104ee60208701876116c2565b6001600160a01b0316815260208082019290925260409081015f90812060c08801358252909252808220805460ff191693151593909317909255905183917fc08eb64db16a39d2848960af04e3f16fb404d9d436a9f0e9d7d0d4854715c9dc91a2505050565b5f6060805f5f5f6060610565610fcf565b61056d611000565b604080515f80825260208201909252600f60f81b9b939a50919850469750309650945092509050565b6105a360208201826116c2565b6001600160a01b0316336001600160a01b0316146105d45760405163b331e42160e01b815260040160405180910390fd5b5f6105de82610335565b5f8181526002602052604090209091506001815460ff166003811115610606576106066114e2565b1461062457604051630896574360e41b815260040160405180910390fd5b61063460c0840160a085016116db565b67ffffffffffffffff1642111561065e57604051631022c88d60e21b815260040160405180910390fd5b600381015460ff161561067057505050565b600160045f61068260208701876116c2565b6001600160a01b0316815260208082019290925260409081015f90812060c088013582528352819020805493151560ff199485161790556003840180549093166001179092556106d69185019085016116c2565b6001600160a01b03166323b872dd6106f160208601866116c2565b6040516001600160e01b031960e084901b1681526001600160a01b039091166004820152306024820152606086013560448201526064016020604051808303815f875af1158015610744573d5f5f3e3d5ffd5b505050506040513d601f19601f820116820180604052508101906107689190611702565b50505050565b5f8061077d60208601866116c2565b6001600160a01b031614806107a957505f61079e60408601602087016116c2565b6001600160a01b0316145b806107cb57505f6107c060608601604087016116c2565b6001600160a01b0316145b156107e95760405163d92e233d60e01b815260040160405180910390fd5b6107f960c0850160a086016116db565b67ffffffffffffffff1642111561082357604051631022c88d60e21b815260040160405180910390fd5b60045f61083360208701876116c2565b6001600160a01b0316815260208082019290925260409081015f90812060c0880135825290925290205460ff161561087d57604051623f613760e71b815260040160405180910390fd5b5f610889858585610f46565b905061089860208601866116c2565b6001600160a01b0316816001600160a01b0316146108c957604051638baa579f60e01b815260040160405180910390fd5b6108d285610335565b5f818152600260205260408120919350815460ff1660038111156108f8576108f86114e2565b14610904575050610416565b805460ff1916600117815561091c60208701876116c2565b6001600160a01b0316837fcec55e36a8554ff3ceb927dbafd9a776cc19eb8e4f1f1b7199ab47db0ae95e3961095760408a0160208b016116c2565b61096760608b0160408c016116c2565b60608b013560808c013561098160c08e0160a08f016116db565b604080516001600160a01b03968716815295909416602086015292840191909152606083015267ffffffffffffffff16608082015260c0808b013560a08301520160405180910390a350509392505050565b5f5f825f036109f55760405163c6388ef760e01b815260040160405180910390fd5b610a0560c0850160a086016116db565b67ffffffffffffffff16421115610a2f57604051631022c88d60e21b815260040160405180910390fd5b610a3884610335565b5f8181526002602052604090209092506001815460ff166003811115610a6057610a606114e2565b14610a7e57604051630896574360e41b815260040160405180910390fd5b6001816002015f828254610a929190611721565b9091555050600281810154604080516080810182523380825260208083018a8152348486018181526001606087018181525f8e815260038088528a82208c83528852908a9020985189546001600160a01b0319166001600160a01b0390911617895594519188019190915590519886019890985596519301805460ff191693151593909317909255825189815291820194909452919450849186917ffc5e35bfca8867c6a1eb8038fa257f0df8d573814118a33c79ccd058dfd8bcf3910160405180910390a460018101541580610b8657505f83815260036020908152604080832060018086015485529252909120015484115b15610bca5760018101829055604051848152829084907fcfb468dcd4547ea67e23ecfa3748e01e78afbda4f09c0a44bc21c8b8410befc39060200160405180910390a35b509250929050565b5f5f610bdd83610335565b5f8181526002602052604090209092506001815460ff166003811115610c0557610c056114e2565b14610c2357604051630896574360e41b815260040160405180910390fd5b610c3360c0850160a086016116db565b67ffffffffffffffff164211610c5c5760405163163f7f0160e11b815260040160405180910390fd5b600381015460ff16610c815760405163163f7f0160e11b815260040160405180910390fd5b80600101549150815f03610ca85760405163163f7f0160e11b815260040160405180910390fd5b5f8381526003602081815260408084208685529091529091209081015460ff16610ce55760405163c6388ef760e01b815260040160405180910390fd5b846080013581600101541015610d0e5760405163c6388ef760e01b815260040160405180910390fd5b815460ff19166002178255610d2960608601604087016116c2565b81546001600160a01b03918216916323b872dd9116610d4b60208901896116c2565b60018501546040516001600160e01b031960e086901b1681526001600160a01b03938416600482015292909116602483015260448201526064016020604051808303815f875af1158015610da1573d5f5f3e3d5ffd5b505050506040513d601f19601f82011682018060405250810190610dc59190611702565b50610dd660408601602087016116c2565b815460405163a9059cbb60e01b81526001600160a01b0391821660048201526060880135602482015291169063a9059cbb906044016020604051808303815f875af1158015610e27573d5f5f3e3d5ffd5b505050506040513d601f19601f82011682018060405250810190610e4b9190611702565b50600281015415610ef557805460028201546040515f926001600160a01b031691908381818185875af1925050503d805f8114610ea3576040519150601f19603f3d011682016040523d82523d5f602084013e610ea8565b606091505b5050905080610ef35760405162461bcd60e51b8152602060048201526012602482015271189bdb99081c99599d5b990819985a5b195960721b60448201526064015b60405180910390fd5b505b805460018201546040519081526001600160a01b0390911690849086907f4edd9bcf3c1251efc2f36ca5b6e40bc76cc26ee62c6fa451006ee343c78cbf749060200160405180910390a45050915091565b5f5f610f5185610335565b9050610f9484848080601f0160208091040260200160405190810160405280939291908181526020018383808284375f92019190915250859392505061102d9050565b95945050505050565b5f610fc9610fa9611055565b8360405161190160f01b8152600281019290925260228201526042902090565b92915050565b6060610ffb7f00000000000000000000000000000000000000000000000000000000000000005f61117e565b905090565b6060610ffb7f0000000000000000000000000000000000000000000000000000000000000000600161117e565b5f5f5f5f61103b8686611227565b92509250925061104b8282611270565b5090949350505050565b5f306001600160a01b037f0000000000000000000000000000000000000000000000000000000000000000161480156110ad57507f000000000000000000000000000000000000000000000000000000000000000046145b156110d757507f000000000000000000000000000000000000000000000000000000000000000090565b610ffb604080517f8b73c3c69bb8fe3d512ecc4cf759cc79239f7b179b0ffacaa9a75d522b39400f60208201527f0000000000000000000000000000000000000000000000000000000000000000918101919091527f000000000000000000000000000000000000000000000000000000000000000060608201524660808201523060a08201525f9060c00160405160208183030381529060405280519060200120905090565b606060ff8314611198576111918361132c565b9050610fc9565b8180546111a490611740565b80601f01602080910402602001604051908101604052809291908181526020018280546111d090611740565b801561121b5780601f106111f25761010080835404028352916020019161121b565b820191905f5260205f20905b8154815290600101906020018083116111fe57829003601f168201915b50505050509050610fc9565b5f5f5f835160410361125e576020840151604085015160608601515f1a61125088828585611369565b955095509550505050611269565b505081515f91506002905b9250925092565b5f826003811115611283576112836114e2565b0361128c575050565b60018260038111156112a0576112a06114e2565b036112be5760405163f645eedf60e01b815260040160405180910390fd5b60028260038111156112d2576112d26114e2565b036112f35760405163fce698f760e01b815260048101829052602401610eea565b6003826003811115611307576113076114e2565b03611328576040516335e2f38360e21b815260048101829052602401610eea565b5050565b60605f61133883611431565b6040805160208082528183019092529192505f91906020820181803683375050509182525060208101929092525090565b5f80807f7fffffffffffffffffffffffffffffff5d576e7357a4501ddfe92f46681b20a08411156113a257505f91506003905082611427565b604080515f808252602082018084528a905260ff891692820192909252606081018790526080810186905260019060a0016020604051602081039080840390855afa1580156113f3573d5f5f3e3d5ffd5b5050604051601f1901519150506001600160a01b03811661141e57505f925060019150829050611427565b92505f91508190505b9450945094915050565b5f60ff8216601f811115610fc957604051632cd44ac360e21b815260040160405180910390fd5b5f60e08284031215611468575f5ffd5b50919050565b5f60e0828403121561147e575f5ffd5b6104168383611458565b80356001600160a01b038116811461149e575f5ffd5b919050565b5f5f604083850312156114b4575f5ffd5b6114bd83611488565b946020939093013593505050565b5f602082840312156114db575f5ffd5b5035919050565b634e487b7160e01b5f52602160045260245ffd5b608081016004861061151657634e487b7160e01b5f52602160045260245ffd5b94815260208101939093526040830191909152151560609091015290565b5f81518084528060208401602086015e5f602082860101526020601f19601f83011685010191505092915050565b60ff60f81b8816815260e060208201525f61158060e0830189611534565b82810360408401526115928189611534565b606084018890526001600160a01b038716608085015260a0840186905283810360c0850152845180825260208087019350909101905f5b818110156115e75783518352602093840193909201916001016115c9565b50909b9a5050505050505050505050565b5f5f5f610100848603121561160b575f5ffd5b6116158585611458565b925060e084013567ffffffffffffffff811115611630575f5ffd5b8401601f81018613611640575f5ffd5b803567ffffffffffffffff811115611656575f5ffd5b866020828401011115611667575f5ffd5b939660209190910195509293505050565b5f5f610100838503121561168a575f5ffd5b6116948484611458565b9460e0939093013593505050565b5f5f604083850312156116b3575f5ffd5b50508035926020909101359150565b5f602082840312156116d2575f5ffd5b61041682611488565b5f602082840312156116eb575f5ffd5b813567ffffffffffffffff81168114610416575f5ffd5b5f60208284031215611712575f5ffd5b81518015158114610416575f5ffd5b80820180821115610fc957634e487b7160e01b5f52601160045260245ffd5b600181811c9082168061175457607f821691505b60208210810361146857634e487b7160e01b5f52602260045260245ffdfea2646970667358221220cf3da367ab9f3a6acd6fc6909e20339a7c33229cd7be0fddaaa059835491dbed64736f6c634300081e0033",
  "linkReferences": {},
  "deployedLinkReferences": {}
}